:020000040800F2
:10000000C84700209901000815300008ED2B0008B2
:10001000852F0008DD080008F553000800000000E7
:1000200000000000000000000000000001010008C6
:100030005D0C00080000000045010008653D000857
:10004000B3010008B3010008B3010008B3010008C0
:10005000B3010008B3010008B3010008B3010008B0
:10006000B3010008B3010008B3010008B3010008A0
:10007000B3010008B3010008B3010008B301000890
:10008000B3010008B30100081508000885530008F3
:1000900091530008B3010008B3010008B301000840
:1000A000B3010008513E0008B3010008B301000885
:1000B000B3010008B3010008B3010008B301000850
:1000C000B3010008B3010008B3010008B301000840
:1000D000B3010008C1410008CD410008B301000888
:1000E000B3010008B3010008B3010008DFF80CD029
:1000F00000F044FB004800475D540008C84700205A
:10010000224B19680868B0E8F00F80F30988BFF344
:100110006F8F4FF0000080F311884EF00D0E704786
:100120000000000006480068006880F3088862B696
:1001300061B6BFF34F8FBFF36F8F00DF00BF00BF0B
:1001400008ED00E0EFF30980BFF36F8F0F4B1A68E3
:1001500020E9F00F106008B54FF0500080F31188CF
:10016000BFF34F8FBFF36F8F05F082FE4FF000009B
:1001700080F31188BDE8084019680868B0E8F00FFE
:1001800080F30988BFF36F8F704700BF80050020A0
:10019000EFF3058070470000064880470648004797
:1001A000FEE7FEE7FEE7FEE7FEE7FEE7FEE7FEE727
:1001B000FEE7FEE7093E0008ED000008202A04DB08
:1001C000203A21FA02F00021704721FA02F3D040D0
:1001D000C2F12002914008431946704740EA0103EA
:1001E0009B0703D009E008C9121F08C0042AFAD2ED
:1001F00003E011F8013B00F8013B521EF9D27047B1
:10020000F0B480EA0102D40F4200B2EB410F02D2F7
:100210000246084611464A0042D0C30DDDB2C1F382
:10022000C752AD1A202D35DAC1F3160141F4000290
:1002300004B15242C5F1200602FA06F12A411044E7
:10024000B3EBD05F23D0C4B1012DA0EBC35009DCC8
:10025000F0BC4FF0004202EAC352DBB200F50000EE
:1002600000F0E2B9400000F1807000EBC350A0F153
:10027000807040EAD170490009E0490841EAC07144
:10028000A0EBC35000F50000400800EBC350F0BCE9
:1002900000F0C1B96142012202EB4101001BF6E707
:1002A000F0BC704781F00041AAE780F00040A7E76A
:1002B00080EA010210B502F00043400022D04A005B
:1002C0001FD0010E01EB1261C0F35600C2F35602BB
:1002D00040F4000042F40002A0FB022000047F3939
:1002E000140400D0401C50EA124001D44000491EC2
:1002F000C2B20C0604EBD010401C4008802A02D089
:1003000003E0002010BD20F00100002900DA0020E9
:10031000184310BD30B480EA010202F0004530F00D
:10032000004221F0004013D090B1C30DD40DC2F3B0
:100330001601C0F31600E41A41F4000140F4000273
:100340007D34914201D3641C00E04900002C02DAA4
:1003500030BC002070474FF400000023914201D3CD
:10036000891A034340084FEA4101F7D151B1914244
:1003700002D14FF0004105E002D24FF0010101E04F
:100380006FF0010103EBC450284430BC00F043B9C6
:10039000420005D0C0F3C7525242914201DC002016
:1003A000704700EBC15070472DE9FE4F81EA03040E
:1003B00004F0004421F0004100944FF0000B23F0C2
:1003C000004350EA01045ED052EA03045BD0C3F359
:1003D0000A54C1F30A552C44A4F2F3340194A0FB4F
:1003E0000254C1F3130141F48011C3F3130343F426
:1003F000801301FB024400FB034E840A970A44EA7F
:10040000815447EA8357A4FB076802958D0A05FBD0
:1004100007854FEA932C04FB0C542705029D4FEAF5
:10042000065847EA1637B5EB08056EEB070C870E42
:10043000920E47EA811742EA8312A7FB0201B6EB4C
:100440000B0164EB00042B0D43EA0C335E1844EB04
:100450001C50DA465146E7FB0201C5F313044FEA8C
:100460000B3343EA14534FEA0432019C43EA060378
:10047000A4F10C040294009CCDE900B400F02FF923
:1004800003B0BDE8F08F00200146F9E72DE9F04DFB
:1004900081EA030404F0004B21F0004514464FF0BC
:1004A000000A23F0004150EA050220D054EA01027C
:1004B0001DD0C5F30A570246C5F31303C1F3130059
:1004C000C1F30A5640F4801543F48013A7EB0608E5
:1004D000101BD64608F2FD3873EB050002D308F175
:1004E000010801E092185B41B8F1000F03DA002027
:1004F0000146BDE8F08D00204FF480110646844689
:100500000EE0171B73EB050705D3121B63EB050306
:1005100006434CEA010C49084FEA300092185B414F
:1005200050EA0107EDD152EA030012D082EA04003A
:1005300083EA0501084305D0101BAB4106D2012216
:10054000002306E000224FF0004302E06FF00102BA
:1005500053101AEB06004CEB085110EB0A0041EB6C
:100560000B01BDE8F04D00F0ABB896230022114618
:1005700000F05AB80EB5C10F80EAE0700844CA070F
:10058000002140F233438DE80E000A460B4600F08E
:10059000A6F803B000BD20F00040C10DC0F3160066
:1005A00040F400007F2901DA00207047962903DC1F
:1005B000C1F19601C8407047963988407047C1F331
:1005C0000A5210B5C1F3130140F2FF3341F4801118
:1005D0009A4201DA002010BD40F233439A42A2F25F
:1005E000334203DC5242FFF7E9FD10BD904010BDDD
:1005F00000F0004230F000400AD0C10D01F56071FA
:10060000C0F3160042EA0151C20840071143704787
:100610000020014670470029A8BF7047401C4900D0
:1006200008BF20F00100704710B4B0FA80FC00FA57
:100630000CF050EA010404BF10BC704749B1CCF182
:10064000200421FA04F411FA0CF118BF012121430E
:100650000843A3EB0C01CB1D4FEA00614FEA1020C9
:1006600042BF002010BC704700EBC350104400296B
:10067000A4BF10BC7047401C490008BF20F0010017
:1006800010BC704710B541000CD0C0F3C75196297B
:1006900008DC7E2909DC06DB410204D000F00040C2
:1006A00040F07E5010BD002010BDC1F19604C4F191
:1006B000200100FA01F1E040FFF7ADFFA04010BDBE
:1006C00010B5141E73F1000408DA401C41F100015A
:1006D00092185B411A4301D120F0010010BD2DE9B1
:1006E000F04D92469B4611B1B1FA81F202E0B0FAA8
:1006F00080F22032904600F053F804460F4640EA5C
:100700000A0041EA0B0153465A46084313D01146EA
:1007100053EA010019D0C8F140025046FFF74EFDE0
:1007200005460E4650465946424600F039F8084301
:1007300005D0012004E020463946BDE8F08D0020B8
:10074000054346EAE0762C4337430A986305E40AFA
:10075000A0EB08000022FD0A44EA47540A3002D503
:1007600000200146E9E7010510196941DDE9084566
:1007700000196941BDE8F04DA2E70000064C074DA5
:1007800006E0E06840F0010394E807009847103461
:10079000AC42F6D3FFF7AEFCA0680008C0680008C2
:1007A000202A04DB203A00FA02F100207047914031
:1007B000C2F1200320FA03F319439040704770B54B
:1007C0008C1810F8015B15F0070301D110F8013BFC
:1007D0002A1106D110F8012B03E010F8016B01F883
:1007E000016B5B1EF9D12B0705D40023521E0DD4DB
:1007F00001F8013BFAE710F8013BCB1A921C03E029
:1008000013F8015B01F8015B521EF9D5A142D8D360
:10081000002070BD014800F056BD0000C805002052
:1008200070B5044600688168C943C9071BD1816857
:1008300021F00101816000F0BFFF05460EE000F0ED
:10084000BBFF401B022809D9A06A40F01000A0623B
:10085000E06A40F00100E062012070BD206880681D
:10086000C043C007EBD0002070BD0000F8B50026E3
:100870000446009600688168C943C90727D081688B
:1008800041F001018160134813490068B0FBF1F0A9
:1008900000E0401E00900028FBD100F08DFF0546CF
:1008A00010E000F089FF401B02280BD9A06A40F03D
:1008B0001000A062E06A40F00100E06284F8246069
:1008C0000120F8BD20688068C043C007E9D100203E
:1008D000F8BD00005805002040420F00FEE7002050
:1008E000704700207047000010B5002204490548F9
:1008F00003F042FD0449034803F038FD002010BD19
:10090000DC1A002068080020F41600202DE9F041D0
:1009100005460E4600240A4803F00CFD30880A4BB9
:1009200082B208484280018803E02E5D6718641C8B
:10093000DE559442F9D3114401800020BDE8F081D6
:10094000680800202A0400200C1300200A460949E8
:1009500010B5D1F81812D1F8141209B1012010BD48
:100960000146044803F008FDBDE81040014803F0CB
:1009700043BD00006808002070B54FF6FF720024E8
:100980004AF201050AE0035D5A400823D6074FEA00
:10099000520200D06A405B1EF8D1641C8C42F2DB2C
:1009A00090B270BD4A4C002504F1AA06A07C002834
:1009B0007ED02574E5776573642004F087FDA07C04
:1009C000012808D0022808D0032808D004287BD0AA
:1009D00005287BD005E0E22002E0E32000E0E420EF
:1009E0003070042070703A480221AA3004F01FFDD4
:1009F000A086010AB170F07035487178AA30FFF70F
:100A0000A5FF4FF4FA7004F061FDDFF8C880002202
:100A10004FF48051404600F0CAFE00224FF40051CE
:100A2000404600F0C4FE00222021404600F0BFFEF8
:100A300000224FF48071404600F0B9FE00224FF4CE
:100A40000071404600F0B3FE00224FF48061404642
:100A500000F0ADFE6572002002F07AFEA07CE0742A
:100A6000A57401206073A0764FF4FA600122A0857E
:100A700097033946404600F09AFE0122082140467D
:100A800000F095FE01221021404600F090FE124831
:100A900002F0ACFA00223946404600F088FE0022FF
:100AA0000821404600F083FE00221021404602E06B
:100AB00006E009E00AE000F07AFE2574A585A57637
:100AC000642004F003FD71E7E52089E7E62087E76D
:100AD0001C000020000C0140400D030030B505460D
:100AE0000C46881E81B2284604F0A1FC0849C3B216
:100AF000A1F84400291911F8012C9A4206D111F8E5
:100B0000021CB1EB102F01D1012030BD002030BDFF
:100B10001C00002030B50C460546891EFFF72CFF4F
:100B20000849C3B2A1F84400291911F8022C9A42CD
:100B300006D111F8011CB1EB102F01D1012030BDFD
:100B4000002030BD1C00002030B5094B0024A3F864
:100B5000424005E08454B3F84220521CA3F84220DE
:100B60000D88B3F842209542F4D20C8030BD0000CD
:100B70001C0000202DE9F047364F0446012901D121
:100B8000012C0DD000222021384600F010FE324DFD
:100B90004FF000064FF00108E879204302D019E039
:100BA0000122F0E700222021384600F000FE4FF439
:100BB000006901224946384600F0F9FD642004F03E
:100BC00085FC00224946384600F0F1FDAE7185F8FB
:100BD00007802E72012C14D1A87990B94FF40079B6
:100BE00001224946384600F0E2FD642004F06EFC24
:100BF00000224946384600F0DAFD85F80680EE719D
:100C00002E72641C23D1287A002820D1012291035E
:100C1000384600F0CCFD01220821384600F0C7FD1F
:100C200001221021384600F0C2FD01229402214623
:100C3000384600F0BCFD642004F048FC0022214648
:100C4000384600F0B4FDAE71EE7185F80880BDE85D
:100C5000F0870000000C01401C00002070470000DD
:100C6000DFF814A2834F4FF001090AF1C80B0026E8
:100C7000AAF24A2898F8100098F91410084398F836
:100C80001A10084339D17D4D00224FF48051284677
:100C900000F08DFD00226914284600F088FD002236
:100CA0004FF48041284600F082FD002208212846AA
:100CB00000F07DFD00221021284600F078FD002282
:100CC0002021284600F073FD0022A915284600F0D7
:100CD0006EFD00226915284600F069FD0022E91426
:100CE000284600F064FD00222915284600F05FFD2B
:100CF00088F80960002002F02BFD98F810004446A7
:100D000001287DD16674A1E078B137F8101007EBA7
:100D1000400030F8020C081A6421484302F034F90C
:100D2000607C012803D8217F02E03888F4E7617FE6
:100D3000A1771AF800005546C00702D0207C012890
:100D400069D000224FF480514C4800F030FD607CA7
:100D5000285C800702D5207C01285ED000224FF459
:100D60000051464800F023FD607C285C400702D516
:100D7000207C012853D000224FF480413F4800F0EE
:100D800016FD607C285C000702D5207C012848D035
:100D900000220821394800F00AFD607C285CC0066A
:100DA00002D5207C01283ED000221021334800F0DB
:100DB000FEFC607C295C890602D5217C012934D0A7
:100DC00066721BF800005D46C00702D0207C012837
:100DD0002ED000224FF48071284800F0E8FC607C9F
:100DE000295C8A0702D5227C012A23D0490702D533
:100DF000217C012921D02675214931F8105000E0CD
:100E00002EE02846FFF7B1FBA066284602F0A0FCC2
:100E1000207CA8B117E0012294E701229FE701227C
:100E2000AAE70122B5E70122BFE784F80990C8E7E5
:100E30000122CFE784F81490DEE7FF212175DBE77C
:100E400094F832006074607C401C6074607C618E39
:100E50008842FFF459AF207C012801D1032020747F
:100E60004FF40041074800F09EFC4FF4FA7004F084
:100E70002DFBFFE63806002066020020000C014032
:100E8000D600002000080140214C207C012806D01B
:100E900094F914100143A07E014320D01AE0A078F9
:100EA000E17E884202D9217D012905D194F91410EF
:100EB000491C01D001212175A17F884205D394F9F5
:100EC0001400401C01D000202075617A94F91400B0
:100ED000FFF750FE94F91400411C12D014E00D4DA0
:100EE00000224FF48041284600F061FC00220821D6
:100EF000284600F05CFC00221021284600F057FC38
:100F0000E3E7617AFFF736FE642004F0DFFABCE71E
:100F10001C000020000C0140F8B50022009290F85F
:100F2000245083681446012D1CD0012580F82450DC
:100F3000D3B14D680B691F269D4226D81F055B1B48
:100F4000C3F103030D6803EB83039D40A7F58017EE
:100F50002F439E40036846F440169D6BB5432F43D4
:100F60009F631EE00220F8BD4B68012B05D0826A0A
:100F700042F020028262012213E003689D6B0E683A
:100F80006FF3150545EAC6350AE05B1BC3F10303A1
:100F900003EB83039E40036846F440169D6BB54304
:100FA0009D6303689D68ED43ED0706D09D6847F299
:100FB0000106B543CE6935439D608B69012B08D18D
:100FC000CB69B3F5E04F08D0826A42F0200282621A
:100FD00001224B69012B06D00CE003685D6845F4E3
:100FE00080655D60F5E78B69A3B1826A42F02002FB
:100FF000826201220B68072605680A2B10D3EF686E
:101000000A3B03EB43039E40B7438E689E40374341
:10101000EF600EE003685D6845F480555D60E9E7C8
:101020002F6903EB43039E40B7438E689E403743CE
:101030002F610B68102B01D0112B04D103689D6820
:1010400045F400059D604B68012B10D0022B16D093
:10105000032B03681BD01D6ACE686FF30B05354365
:101060001D620B68102B19D0112B17D037E00368C5
:101070005D69CE686FF30B0535435D61F1E7036889
:101080009D69CE686FF30B0535439D61E9E7DD6926
:10109000CE686FF30B053543DD61E2E7124D03685F
:1010A000AB4217D19D682D0219D49D6845F4000507
:1010B0009D600968102912D10C490D4B0968B1FBDC
:1010C000F3F101EB8101490000E0491E0091002984
:1010D000FBD104E0816A41F020018162012280F8A5
:1010E00024401046F8BD00000024014058050020AF
:1010F00040420F0070470068022909D0032905D03B
:10110000042901D0C06B7047806C7047406C7047F9
:10111000006C704770B5044690F8240001280DD08B
:10112000012084F824002046FFF7A0FB01004FF0C7
:10113000000205D084F82420084670BD022070BD4E
:10114000A06A42F20103984340F48050A0621C4B15
:1011500020681C4D98421FD12E6816F4702F1BD0AA
:10116000A66A46F48016A662A66AF60500D4E26274
:1011700084F824206FF0040202602068426842F084
:1011800080024260206842685205D5D48268C2F36A
:101190000232072A04D009E0A66A26F48016E2E7A4
:1011A000984208D12A6812F4702F04D0826842F461
:1011B00000428260C0E7826842F40212F9E7000050
:1011C0000028014004240140F8B50023009390F862
:1011D00024201C46012A12D0012280F824204A68CB
:1011E0001F26072A0DD205686F6B521E02EB820282
:1011F0009640B7430E68964037436F6319E002206C
:10120000F8BD05680D2A0AD22F6BD21F02EB8202AD
:101210009640B7430E68964037432F6309E0EF6A64
:101220000D3A02EB82029640B7430E689640374370
:10123000EF620A68072605680A2A0AD3EF680A3AA5
:1012400002EB42029640B7438E6896403743EF6008
:1012500008E02F6902EB42029640B7438E68964041
:1012600037432F610A68102A01D0112A20D1124D6C
:101270000268AA4217D195682D0219D4956845F4E1
:10128000000595600968102912D10C490C4A0968BB
:10129000B1FBF2F101EB8101490000E0491E009130
:1012A0000029FBD104E0816A41F020018162012321
:1012B00080F824401846F8BD00240140580500205D
:1012C00040420F00704710B5044600684168890627
:1012D00026D50168890723D5A16AC90603D4A16A66
:1012E00041F40071A1628168C1F34241072910D124
:1012F000E16871B9416821F020014160A06A20F4E1
:101300008070A062A06AC00403D4A06A40F001000B
:10131000A0622046FFF7D6FF21686FF01200086038
:101320002068416809062ED5016849072BD5A16AB6
:10133000C90603D4A16A41F40051A1628168C1F3D6
:101340000231072909D04168490515D48168C1F3E4
:101350004241072910D1E16871B9416821F080014B
:101360004160A06A20F48050A062A06AC00503D446
:10137000A06A40F00100A0622046FFF7BBFE216892
:101380006FF00C0008602068416849060DD50068C0
:10139000C0070AD0A06A40F48030A062204600F066
:1013A00093F821686FF00100086010BD2DE9F0414D
:1013B0004FF00006040035467ED0A06A002728B909
:1013C000E76284F82470204600F080F82046FFF79A
:1013D00027FAA16A01F01001014304D0A06A40F08D
:1013E0001000A06268E0A16A21F4885141F0020176
:1013F000A1626268E169E3680A4346EA43010A437D
:10140000A1684FF48076B14208D0012906D00021AE
:10141000D4F814C0BCF1010F02D00AE03146F7E75E
:10142000F3B1A36A43F02003A362E36A43F001032C
:10143000E3622368D3F804C02CF4694C4CEA010C35
:10144000C3F804C021688B68DFF870C003EA0C039E
:1014500013438B60A168B1420BD0012909D00CE085
:10146000DFF85CC0A3690CEB43330B4343F400612A
:10147000DFE7218A0D05A5F580152168CB6A23F4E5
:1014800070032B43CB62216889680E4B194091424F
:1014900008D1E762A16A21F0020141F00101A162D5
:1014A000BDE8F081A06A20F0020040F01000A062C8
:1014B000E06A40F00100E0620120F1E7FDF7E1FFA2
:1014C00000E0FFFFFE0E1FFF7047000000B5006840
:1014D0000E4985B0884217D10D48816941F40071E9
:1014E00081618069694600F40070049003200090D7
:1014F0000190084800F06EF800220521122000F04B
:1015000009FA122000F0FAF905B000BD00240140EC
:10151000001002400008014010B590F8211000248E
:10152000022903D00421816301243DE001680A6897
:1015300022F00E020A6001680A6822F001020A60C5
:101540001A4A0168914201D1012121E0174A14325F
:10155000914201D110211BE0144A2832914201D15D
:10156000891515E0114A3C32914201D189140FE0EE
:101570000E4A5032914202D14FF4803108E00B4ABA
:101580006432914202D14FF4801101E04FF080713A
:10159000064A083A5160012180F82110002180F8A4
:1015A0002010416B01B18847204610BD0800024061
:1015B00070B5044600F000F90546601C02D00448EE
:1015C0000078044400F0F8F8401BA042FAD370BD44
:1015D000000000202DE9F84FDFF8A091002309F169
:1015E000040A0AF1040B1C464FF00F080BF1040E1D
:1015F00001270A68A7403A40BA4272D1DFF880C199
:101600004D68A5EB0C0665452BD00DDC032D34D0C1
:1016100005DC35B3012D19D0022D2FD11BE0112D82
:1016200016D0122D2AD119E0B6F5881F19D006DC84
:10163000B6F5803F15D0B6F5801F1FD111E0B6F585
:10164000001F0ED0B6F5041F18D10AE0CB6815E0D4
:10165000CB681B1D12E0CB6808330FE0CB680C335E
:101660000CE08B682BB1012B4FF0080303D04761CE
:1016700004E0042302E0076100E00023FF2A01D810
:10168000064601E000F104064FEA840501D9A5F100
:101690002005376808FA05FC27EA0C0703FA05F568
:1016A00047EA050737604D68ED0060D5354DAE69F6
:1016B00046F00106AE61AD6924F0030605F00105B0
:1016C0000095314D7719BE68A5072D0F08FA05FC66
:1016D00026EA0C06DFF8B4C0604503D14FF0000CD9
:1016E00017E044E0DFF8A8C0604502D14FF0010CDC
:1016F0000FE0DFF8A0C0604502D14FF0020C08E017
:10170000DFF894C0604502D14FF0030C01E04FF0C8
:10171000040C0CFA05FC4CEA060CC7F808C04D682E
:10172000D9F80060ED034D4601D5164300E096431D
:101730002E604D68DAF80060AD03554601D51643BA
:1017400000E096432E604D68DBF80060ED025D46D8
:1017500001D5164300E096432E604D68DEF8006028
:10176000AD02754601D5164300E096432E60641C19
:10177000102CFFF43DAFBDE8F88F000000040140DD
:10178000000011100010024000000140000801405C
:10179000000C014000100140001401408068084026
:1017A00000D001207047C2684A40C26070470AB149
:1017B000016170470904FBE7014880687047000039
:1017C000000000200248816802781144816070475F
:1017D00000000020074810B5016841F010010160C9
:1017E000032000F0B7F8002000F006F800F03EF803
:1017F000002010BD0020024000B5014687B0002245
:10180000192000F087F8192000F078F81348816952
:1018100041F400618161806905A900F400600690CF
:10182000684600F081FC00F0B5FC0D490D4AB0FBA4
:10183000F1F10D48491E0260416040F2E73200219B
:10184000C0E90321816000F010FF10B1012007B052
:1018500000BD054800F025FFF9E700000010024038
:1018600040420F00002C0140C41E0020214808B552
:10187000816941F001018161816901F001010091FB
:10188000C16941F08051C161C06900F08050009091
:10189000032000F05FF8002211466FF00B0000F00B
:1018A00039F8002211466FF00A0000F033F80022E8
:1018B00011466FF0090000F02DF800221146501F6C
:1018C00000F028F800221146101F00F023F8002233
:1018D0000F21901E00F01EF800220F21501E00F074
:1018E00019F80549486820F0E06040F00070486051
:1018F00008BD0000001002400000014000F01F027F
:10190000012191404009800000F1E020C0F8001161
:1019100070470000F0B40E4B1B68C3F30223C3F101
:101920000704042C00D904241D1D072D01D2002317
:1019300000E0DB1E012606FA04F56D1E0D409D40F9
:101940009E40761E164045EA0601F0BC01F063BBDE
:101950000CED00E0064A00F0070110684FF6FF03A7
:10196000184040EA01200349084310607047000016
:101970000CED00E00000FA0510B50C0605D501F0ED
:101980007F0100EB4110283003E000EB411000F52F
:101990000A7099B232B101228272C180190C0181A0
:1019A000002010BD002282728180F9E7704700EBB1
:1019B0004112D0F85C04D26B02F0BCBE00EB4112C5
:1019C000D0F85C04D2F83C2202F009BF10B50446FE
:1019D0000A460B0601F07F0004EB401101D52831C7
:1019E00001E001F50A710870D009487094F82804E4
:1019F000012809D0012084F82804206803F0E9FABE
:101A0000002084F8280410BD022010BD70B50A46DD
:101A10000446090602F07F0003D504EB401128318B
:101A200003E004EB421101F50A7100258D70087086
:101A3000D009487094F82804012809D0012084F8BE
:101A40002804206803F069FB84F82854002070BD46
:101A5000022070BD01F00F0100EB4110B0F844020C
:101A600080B2704770B504460D460E0601F07F0047
:101A700004EB401101D5283101E001F50A7108702D
:101A8000E80948700A61CB7094F82804012809D04D
:101A9000012084F82804206803F070F9002084F8FD
:101AA000280470BD022070BD70B50D4601F07F04A2
:101AB00000EB4411C1E98F230022C1F8442281F8D0
:101AC000292281F8284201F50A716A06006803F0AC
:101AD0007EFB002070BD70B50D460446090605F07A
:101AE0007F0003D504EB4011283103E004EB4511DE
:101AF00001F50A7101228A700870E809487094F8AB
:101B00002804012807D084F82824206803F03AFB31
:101B1000680602D006E0022070BD04F22C41206865
:101B200003F0F9FA002084F8280470BD70B50D4662
:101B300001F07F0400EB4411C1E90F2300224A6445
:101B4000012281F8292001F8284F6A06006803F075
:101B50003EFB002070BD10B50446006803F01EFC7B
:101B6000000402D5204601F066FA206803F016FC56
:101B700040050CD5206830F8441F21F480610180B5
:101B8000204600F0F3F80021204600F004F9206818
:101B900003F004FC400405D5206830F8441F21F40C
:101BA00080410180206803F0F9FB800405D520689E
:101BB00030F8441F21F400510180206803F0EEFB4F
:101BC000C00414D5206830F8401F21F004010180C2
:101BD000206830F8401F21F008010180204600F005
:101BE000D2F8206830F8441F21F480510180206829
:101BF00003F0D4FB00051AD5206830F8401F41F0EF
:101C000008010180206830F8441F21F40061018040
:101C1000206830F8401F41F004010180206803F083
:101C2000BDFBC043C00402D5204600F0E9F820689F
:101C300003F0B4FB800508D5206830F8441F21F478
:101C400000710180204600F0A2F8206803F0A6FB96
:101C5000C00505D5206830F8441F21F4807101804B
:101C600010BD2DE9F04186B004004FF0000504D00E
:101C700094F82904002620B108E0012006B0BDE850
:101C8000F08184F82864204600F04AF8032084F8A4
:101C90002904206803F038FA04F110011422884660
:101CA0006846FEF79BFA94E80F0003F090F90021D4
:101CB000206803F084FB012704EB451080F82970AD
:101CC00000F8285F8581C670066146616D1C8661DB
:101CD0000F2DF1D3002104EB411080F8296280F828
:101CE0002812818680F82B62C0F83862C0F83C6206
:101CF000491CC0F840620F29EDD3142241466846C2
:101D0000FEF76CFA94E80F0003F0EFF984F8246012
:101D100084F82974206803F0E6F90020AEE700009B
:101D200008B500680F4988421AD10F48C16941F4CB
:101D30000001C161C069002200F40000009005218B
:101D40001320FFF7E7FD1320FFF7D8FD0022052140
:101D50001420FFF7DFFDBDE808401420FFF7CEBDDB
:101D600008BD0000005C00400010024010B50446B1
:101D70000121D0F85C0402F01BFED4F85C04BDE83D
:101D8000104002F0E4BDD0F85C0402F0FFBDD0F8D2
:101D90005C0402F001BE10B5044690F82804012846
:101DA0000BD0012084F8280484F82410206803F064
:101DB00008FB002084F8280410BD022010BDD0F8D4
:101DC0005C2400F22C41104602F005BE10B504461A
:101DD00090F82804012810D0012084F82804014636
:101DE0002046FFF7E3FD206803F07BF9206803F04D
:101DF000C1FA002084F8280410BD022010BD0000A4
:101E000010B50446D0F85C0402F032FEA069002848
:101E100004D00348016841F00601016010BD0000D4
:101E200010ED00E0014901200862704700000E42F9
:101E300010B5014627A086B01DC88DE81D0029A059
:101E4000294C006804900020012922D0022939D0B1
:101E500010291CD161682268D20118D5C1F38342D0
:101E6000C9031DF8020009D5616804AAC1F3404105
:101E7000515C1E4AB2FBF1F1484301E01C49484362
:101E80006168490203D440000321B0FBF1F006B0C1
:101E900010BD216AC1F30122012A03D1890701D5AE
:101EA000D003F4E7022A05D1616A890702D549F611
:101EB0004040ECE7032AEAD121688903E7D54FF2D5
:101EC0002440E4E700F066F96168C1F38131491C00
:101ED0004900DAE702030405060708090A0B0C0D9E
:101EE0000E0F1010010200000010024000127A00D4
:101EF00000093D002DE9F84304460078344FC0073F
:101F000052D0F8690025C00008D4F86940F080502C
:101F1000F861F869012500F0805000902D480168B3
:101F2000C90511D40168804641F480710160FFF752
:101F300043FC064604E0FFF73FFC801B642822D8E0
:101F4000D8F80000C005F6D5386A10F4407020D0EB
:101F5000A18801F4407181421BD0386A1E490122D8
:101F600020F440700A6000220A603862C00710D076
:101F7000FFF722FC064641F2883807E0FFF71CFC19
:101F8000811B414502D90320BDE8F883386A8007E8
:101F9000F4D5386A616820F44070084338621DB196
:101FA000F86920F08050F8612078800705D57868BE
:101FB000A16820F44040084378602078C00605D529
:101FC0007868E16820F48000084378600020DBE74F
:101FD0000010024000700040400442422DE9F047EA
:101FE000DFF8348104460E46D8F8000000F0070000
:101FF000B0420CD2D8F8001021F007013143C8F8E4
:102000000010D8F8000000F00700B04260D120783E
:10201000424F800705D57868A16820F0F00008439A
:1020200078602078C00742D06068012816D03968EF
:10203000022816D0890700294ADA796821F00301BD
:1020400001437960FFF7B8FB0546606841F28831CB
:1020500001280ED00228894617D024E03968890368
:10206000E9E78901E7E7FFF7A7FB411B494501D9EC
:1020700016E089467868C0F381000128F3D116E0A4
:10208000FFF79AFB411B49450AD87868C0F38100E5
:102090000228F5D10BE0FFF78FFB411B494502D920
:1020A0000320BDE8F087786810F00C0FF3D1D8F862
:1020B0000010404601F00701B1420BD9016821F040
:1020C000070131430160006800F00700B04201D011
:1020D0000120E6E72078400705D57868E16820F41C
:1020E000E060084378602078000706D578682169A9
:1020F00020F4605040EAC100786000F05BF8796835
:10210000074AC1F30311515CC8400649086000202A
:10211000FFF772FB0020C4E70020024000100240DD
:1021200010680008580500200F2202600C4A53680E
:1021300003F003034360536803F0F00383605368C4
:1021400003F4E063C36052684FF4E06303EAD20231
:1021500002610448006800F0070008607047000052
:102160000010024000200240014800687047000053
:10217000580500200448054900684968044AC1F32D
:102180000221515CC84070475805002000100240F1
:10219000206800080448054900684968044AC1F3FA
:1021A000C221515CC8407047580500200010024011
:1021B0002068000812A085B00FC88DE80F0014A099
:1021C000144B006804905968134801F00C02042A6B
:1021D00010D0082A0ED1C1F38342C9031DF80200B2
:1021E0000AD5596804AAC1F34041515C0A4A5043D8
:1021F000B0FBF1F005B0704708494843FAE700002A
:1022000002030405060708090A0B0C0D0E0F101037
:10221000010200000010024000127A0000093D0097
:102220002DE9F84F04460078B64DC00747D06868DE
:10223000C0F38100012807D06868C0F3810002283C
:1022400009D16868C00306D52868800337D560685F
:1022500000286ED033E06068B0F5803F0BD010B13D
:10226000B0F5A02F11D0286820F4803028602868AD
:1022700020F4802002E0286840F480302860606804
:1022800088B1FFF799FA064609E0286840F48020F3
:102290002860F0E7FFF790FA801B642873D828685D
:1022A0008003F7D50BE0FFF787FA064604E0FFF757
:1022B00083FA801B6428F1D828688003F7D420783B
:1022C000DFF8448280074FF0010A4FF0000939D54A
:1022D000686810F00C0F07D06868C0F3810002280E
:1022E00009D16868C00306D42868800713D520691F
:1022F00001281ED10FE02069A8B1C8F800A0FFF79F
:102300005BFA064604E0FFF757FA801B0228C5D89F
:1023100028688007F7D52868616920F0F80040EA4E
:10232000C10028600EE0C8F80090FFF745FA0646A5
:1023300005E0E5E0FFF740FA801B022823D8286873
:102340008007F7D4207800072CD57049A069D8B150
:10235000C1F800A0FFF730FA064604E0FFF72CFAB8
:10236000801B02280FD8686A8007F7D568484FF4A9
:10237000FA510068B0FBF1F0009000BF0098411ED8
:102380000091FAD20EE07CE0C1F80090FFF714FA59
:10239000064604E0FFF710FA801B022871D8686A2D
:1023A0008007F7D4207840075BD5E8690027C00094
:1023B00008D4E86940F08050E861E869012700F03E
:1023C0008050009053480168C90511D401688346C4
:1023D00041F480710160FFF7EFF9064604E0FFF772
:1023E000EBF9801B64284CD8DBF80000C005F6D55B
:1023F000E06801280AD008B1052813D0286A20F027
:1024000001002862286A20F0040002E0286A40F0F7
:1024100001002862E06841F2883B88B1FFF7CCF9FF
:10242000064609E0286A40F004002862EEE7FFF75C
:10243000C3F9811B59455BD8286A8007F7D50BE0A3
:10244000FFF7BAF9064604E0FFF7B6F9811B5945D4
:102450004ED8286A8007F7D41FB1E86920F0805071
:10246000E861E069A8B36968C1F38101022947D036
:102470000228484606D0C8F86000FFF79DF90446D8
:1024800039E035E04746C8F86000FFF795F90646A1
:1024900004E0FFF791F9801B022829D82868800101
:1024A000F7D4206AB0F5803F05D16868A16820F4B0
:1024B000003008436860D4E908010843696821F4E2
:1024C000741108436860C7F860A0FFF775F9044607
:1024D00005E013E0FFF770F9001B022808D8286810
:1024E0008001F7D50AE0FFF767F9001B022802D93F
:1024F0000320BDE8F88F28688001F4D40020F8E7B5
:102500000120F6E7001002400000424280044242EF
:10251000580500200070004070B5040003D0607CB6
:10252000002610B105E0012070BD2674204600F0A1
:1025300043F802206074204600F058F8042578BB68
:10254000204600F01CFF58BB2068416821F00701BD
:102550004160A06820B11748016821F001010160C5
:102560001448001F0168A26821F4607111430160E2
:102570006068411C04D10120FFF75AFC80B1401E65
:1025800021688A6822F00F0242EA10428A602168BC
:10259000CA6860F30F02CA60204600F00AFF08B163
:1025A0006574C0E7E67301206073A0736074002057
:1025B00070BD0000306C004008B5006808498842D2
:1025C0000DD1FFF72FFC0748C16941F00061C161DF
:1025D000C069054900F0006000900120086008BD56
:1025E00000280040001002403C04424270B5040044
:1025F0000AD02068416821F008014160FFF7DCF84B
:1026000005464FF47A7608E0012070BDFFF7D4F854
:10261000401BB04201D9032070BD2068406800070C
:10262000F4D5002070BD4FF0E0210428086903D0E4
:1026300020F004000861704740F00400FAE710B58C
:10264000401EB0F1807F01D3012010BD4FF0E02487
:1026500060610F21601700F0DEFC0020A061072000
:102660002061002010BD7047704710B5040003D0F2
:1026700094F83D0010B107E0012010BD002084F85F
:102680003C00204600F00CF8022084F83D00211D9B
:10269000206801F0E3FB012084F83D00002010BD1C
:1026A00070470168CA6842F00102CA6000680168A8
:1026B00041F00101016000207047704770B5044689
:1026C000006801694FF00005C943890715D4C16846
:1026D000C943890711D4E91E0161012020772068D0
:1026E00080698007204602D0FFF7E7FF04E000F092
:1026F00098F8204600F096F8257720680169C943CC
:10270000490717D4C168C943490713D46FF00401BE
:102710000161022020772068806910F4407F204604
:1027200002D0FFF7CAFF04E000F07BF8204600F07B
:1027300079F8257720680169C943090716D4C1686B
:10274000C943090712D46FF0080101610420207702
:102750002068C0698007204602D0FFF7AEFF04E082
:1027600000F05FF8204600F05DF8257720680169E9
:10277000C943C90617D4C168C943C90613D46FF049
:1027800010010161082020772068C06910F4407FA3
:10279000204602D0FFF791FF04E000F042F8204607
:1027A00000F040F8257720680169C943C90708D1BE
:1027B000C168C943C90704D1891E0161204600F0E0
:1027C00033F820680169C943090609D4C168C943BF
:1027D000090605D46FF0800101612046FFF743FF31
:1027E00020680169C943490609D4C168C94349063B
:1027F00005D46FF040010161204600F01FF8206809
:102800000169C94389060BD4C168C943890607D445
:102810006FF0200101612046BDE87040FFF724BF42
:1028200070BD70477047000000680349884201D1BD
:10283000FEF7C8BF70470000002C0140704770478A
:1028400070B5026804461068D168536910F00F0F24
:1028500051D003F0010501F4907635435DD0C207F5
:1028600005D0CA0503D5E26B42F00102E2634207DC
:1028700005D5DA0703D0E26B42F00202E263820779
:1028800005D5DA0703D0E26B42F00402E2630207E7
:1028900005D5DA0703D0E26B42F00802E263E26B8F
:1028A000002A34D0800604D5880602D5204601F0DF
:1028B00021FB20684069E16BC0F3801001F0080142
:1028C0000143204624D001F007FB206841694906F6
:1028D0001AD5416921F040014161606BA0B11B49EB
:1028E0004163606BFEF718FE002810D0606B416BEF
:1028F000BDE87040084783060FD58B060DD52046EE
:10290000BDE8704001F0F6BA2046FFF798FF70BDB1
:10291000FFF795FF0020E06370BD030606D50B06A8
:1029200004D52046BDE8704001F0E8BB4006F3D571
:102930004806F1D5D168204621F04001D160202120
:1029400084F8391000F051F970BD0000C93E00084C
:1029500070B5040004D094F83900002510B106E0E9
:10296000012070BD84F83850204600F023F8242060
:1029700084F839002068C16821F40051C160204604
:1029800001F004FB2068016921F490410161206895
:10299000416921F02A0141612068C16841F4005178
:1029A000C160E563202084F8390084F83A000020F3
:1029B00070BD000070B5274E01680024264A022031
:1029C0000323264D86B0B1421ED1916941F4804166
:1029D00091619169039301F4804104910102CDE971
:1029E000001069462846FEF7F5FD2815CDE90004DC
:1029F000694628460294FEF7EDFD002205212520B8
:102A0000FEF788FF252020E0154EB1421FD1D16985
:102A100041F40031D161D169039301F40031049193
:102A20000421CDE9001069462846FEF7D3FD0820B1
:102A3000CDE90004694628460294FEF7CBFD00224A
:102A400005212620FEF766FF2620FEF757FF06B079
:102A500070BD000000380140001002400008014035
:102A60000044004090F83A30202B22D1F9B1F2B165
:102A700090F83830012B1CD081628285C2850021FC
:102A8000C163222280F83A2080F838100168CA68B1
:102A900042F48072CA6001684A6942F001024A61E8
:102AA0000068C16841F02001C1600020704701202A
:102AB000704702207047000070B5194E194C3078ED
:102AC00030B100231A463146606803F023FCA06051
:102AD000144D0C35287830B100231A462946606819
:102AE00003F018FCA060002001463154401CC0B225
:102AF0000828FAD900202954401CC0B20428FAD969
:102B000020880849401C208004220C310648FFF729
:102B1000A9FFBDE87040092201490448FFF7A2BFA0
:102B2000BC0500200C00002028080020E807002039
:102B30002DE9F843044690F839001E4617460D4625
:102B4000202850D1A5B19FB194F8380001284AD06F
:102B5000012084F838004FF00008C4F83C802120A0
:102B600084F83900FEF728FEA7848146E78426E032
:102B70000120BDE8F883E08C401EE084A0684B464D
:102B8000B0F5805F4FF000024FF0800120460096C4
:102B900003D001F0E4FAE8B90DE001F0E0FAC8B9B9
:102BA00028882168C0F308004860206908B16D1CBE
:102BB00005E0AD1C03E0216815F8010B4860E08CCE
:102BC0000028D8D14B46002240212046009601F033
:102BD000C6FA08B10320CCE7202084F8390084F835
:102BE00038800020C5E70220C3E77047FEE70000F9
:102BF00070B523488CB02149016001258915002456
:102C00004561C0E902144FF460214460C0E90651F7
:102C10000561FEF7CBFB18B14F211AA002F0ECFBC7
:102C2000CDE9084508A916480A94FEF7CDFA18B16F
:102C3000592114A002F0E0FBCDE900454FF4E0403B
:102C400002940226CDE90640CDE9046469460C48A9
:102C50000394FEF761F918B168210AA002F0CCFBD9
:102C6000CDE9005669460648FEF756F9002803D01C
:102C7000712104A002F0C0FB0CB070BD0024014023
:102C8000C80500202E2E2F5372632F6164632E63BC
:102C90000000000030B54C49B3B000204B4C088018
:102CA0004FF4C8754D80638E02205B1E08E0C0EBB8
:102CB000001205EB42021E3A21F81020401C80B29F
:102CC0009842F4DB41F20C70A1F850011422404903
:102CD0006846FDF783FA0021684602F00DFC3C4986
:102CE000E0661422143105A8FDF778FA002105A842
:102CF00002F002FC36492067142228310AA8FDF7A9
:102D00006DFA00210AA802F0F7FB3149606714222E
:102D10003C310FA8FDF762FA00210FA802F0ECFB8E
:102D20002B49A0671422503114A8FDF757FA00214F
:102D300014A802F0E1FB2649E0671422643119A8C7
:102D4000FDF74CFA002119A802F0D6FB1F4C2049D0
:102D500080341422206078311EA8FDF73FFA00214C
:102D60001EA802F0C9FB1A49606014228C3123A806
:102D7000FDF734FA002123A802F0BEFB1449A0603D
:102D80001422A03128A8FDF729FA002128A802F072
:102D9000B3FB0F49E0601422B4312DA8FDF71EFAF1
:102DA00000212DA802F0A8FB206100220A210520A5
:102DB00003F0DEF8606100220A21052003F0D8F854
:102DC000E06133B030BD0000380600201C00002058
:102DD000486700082DE9F043204885B0816941F03B
:102DE00020018161816901F020010491816941F034
:102DF00004018161816901F004010491816941F05C
:102E0000080181618069DFF8588000F0080048F20D
:102E1000F0140490002221464046FEF7C8FCDFF87B
:102E200044904FF6FB76002231464846FEF7BFFC41
:102E3000012500278DE8B00002246946404603942E
:102E4000FEF7C8FBCDE90274CDE900656946484646
:102E5000FEF7C0FB05B0BDE8F083000000100240A3
:102E600000080140000C01400B4810B50949016001
:102E70004FF0FF3141604FF480718160FFF74CFBF0
:102E8000002805D0BDE81040462104A002F0B4BAE5
:102E900010BD000000280040D40700202E2E2F5324
:102EA00072632F7274632E63000000000F4810B528
:102EB0000D4901604FF4964141604FF480518160AB
:102EC00000214FF4C062C0E903120C22C0E90521C1
:102ED000C161FFF73DFD002805D0BDE810404D2140
:102EE00003A002F089BA10BD00380140E8070020B5
:102EF0002E2E2F5372632F75736172742E63000030
:102F00000D4810B50B4901604FF496514160002106
:102F100081600C22C160C0E904128161C161FFF7C8
:102F200017FD002805D0BDE81040602103A002F085
:102F300063BA10BD00440040280800202E2E2F53F5
:102F400072632F75736172742E63000010B50022D6
:102F50000849094801F0B9FB0849074801F0B5FDE7
:102F60000749054801F0FAF9BDE81040024801F0B0
:102F7000F9BD0000F80300206808002020050020AB
:102F800030040020FEE700002DE9F047C825064682
:102F90000024DFF850804FF40059134F1DE098F8DB
:102FA0001010404600291AD0817E012917D0417C9B
:102FB00001290ED8817898F81E00814209D3002299
:102FC00049463846FEF7F3FB002210213846FEF74B
:102FD000EEFB284602F07AFA2C44B442DFD3BDE877
:102FE000F08700001C000020000C01402DE9F0419A
:102FF000C82607460024064D06E0304602F066FA71
:10300000A88D3444801EA885BC42F6D3BDE8F0816B
:103010001C00002070470907090E002806DA00F09E
:103020000F0000F1E02080F8141D704700F1E0204F
:1030300080F8001470472DE9FC5F04460020ADF8CD
:103040000000ADF8040040F68F7B4FF006094FF00A
:10305000020A4FF4806884E1BDF8001011F00F06F9
:1030600028D030F82610ADF80410BDF8041009047B
:1030700075D530F8261001EA0B0120F8261004EB74
:10308000461595F8320205F50A750028206867D0C4
:10309000297830F82120B0F8503052047CD50AEB62
:1030A000C1015A1808EB4201415A8F05BF0D74D077
:1030B000EA88C7E0BDF80010C9062CD4018848F69C
:1030C0000F7211400180206804F12805B0F85020EB
:1030D0002B780AEBC3010A4408EB4201405AC0F3C3
:1030E00009006064E16B0844E06300212046FEF7BC
:1030F0005EFC94F824000028ADD0A8690028AAD16D
:1031000094F82400216840F08000A1F84C000020D1
:1031100084F8240025E1018804F50A75ADF804104F
:10312000BDF8041009051CD5B0F850202B7809EB28
:10313000C3010A4408EB4201405A04F22C41C0F397
:103140000903EB61AA88206802F02BF92068018846
:1031500001EA0B0101802046FEF731FE01E195E016
:1031600054E0BDF804100904D4D5018801EA0B012C
:1031700001802068B0F850202B78464609EBC30147
:10318000114408EB4101405A83059B0DEB610BD0C4
:10319000AA886969206801E04AE057E002F001F975
:1031A000E96968690844686100212046FEF706FC69
:1031B0002068B0F85010891D06EB410142182869BB
:1031C0003E280CD9C0F34F11C00601D1491E89B267
:1031D0004FF6FF7000EA812040F4004009E0C0F3A0
:1031E0004F01C00701D0491C89B24FF6FF7000EAB9
:1031F00081201060206801884BF68F72114081F4A5
:10320000405148F2800211430180AAE0B0F85020FA
:103210002B7809EBC3010A4408EB4201415A8F05A0
:10322000BF0D1FD0AA883B46696902F0BAF819E0C1
:1032300009EBC1015A1808EB4201415A8F05BF0D35
:1032400004D02A893B46696902F0ABF829782068E6
:1032500030F8212048F68F731A4048F2C0031A4311
:1032600020F82120E8693844E8616869C2196A6178
:10327000AB6913B12869B84204D929782046FEF712
:103280009DFB03E029782046FEF70EFCBDF8040004
:10329000000666D5206804EB461530F8261048F67F
:1032A0000F72114020F8261095F8320028350028BA
:1032B000206812D0297830F82120B0F8503052061A
:1032C0001ED50AEBC1015A1808EB4201405A83058A
:1032D0009B0DEB6123D0EA881DE0B0F850202B78DD
:1032E0000AEBC3010A4408EB4201405A83059B0DD7
:1032F000EB6120D0AA886969206802F068F81AE0BA
:1033000009EBC1015A1808EB4201405A83059B0D95
:10331000EB6104D02A896969206802F058F829789D
:10332000206830F8212048F68F731A404CF2800351
:103330001A4320F821202068B0F850202B780AEB9F
:10334000C3010A4408EB4201405AC0F30900E86196
:1033500069690A186A612978AB69204663B1FEF78A
:10336000E5FB2068B0F84410ADF8001009043FF503
:1033700073AE0020BDE8FC9FFEF719FBF1E770B5C6
:103380000546FEF719FA04464FF47A7606E0FEF792
:1033900013FA001BB04201D9032070BD28684068B1
:1033A0008006F4D52868416841F010014160002092
:1033B00070BD70B505460068416821F0100141609C
:1033C000FEF7FAF904464FF47A7606E0FEF7F4F9D0
:1033D000001BB04201D9032070BD286840688006F8
:1033E000F4D5002070BD00000F4C1048FDF792FE90
:1033F00001210E48FDF77FFEFDF7B7F80146A065F5
:10340000E06DFCF7FDFEE06502210848FDF773FE64
:10341000FDF7ABF80146E064206DFCF7F1FE206596
:103420000A2002F053F8E0E71C000020C805002045
:10343000DFF840A200270AF5C8798F4D4FF0010B45
:10344000A9F24A243E462988022903D38B48FDF776
:1034500045FB2073207B01287DD1DFF8208298F87E
:103460000000212810D198F80100042874D1A67317
:10347000E673267484F80DB084F815B07E49404692
:10348000FDF762FB2E8000277C480078CC285FD1B6
:103490007B4FDFF8F0C1E67252464B46E07A924627
:1034A000994627F8106022F810601E540CF800604E
:1034B000401CC0B2E046E072C828EFD36F4948789C
:1034C0000002E0858978491F89B221860844FDF70A
:1034D0004CF86D49FCF71EFF02F0DCFAFDF75BF8D3
:1034E00081B26186E672654A23E002EB400393F8FD
:1034F00004C0DB780CEB032327F81030431802EBF1
:10350000430393F804C0DB780CEB03232AF8103054
:1035100000EB8103134493F803C001EB81030344E0
:10352000134409F800C093F803C008F800C0401C19
:10353000E072E07A8842D8D384F80EB0E67326743D
:1035400084F815B04C494D48FDF7FEFA2E8000274F
:10355000DFF8288101E07FE07DE098F80000BF28D7
:103560000ED198F80100042875D1E07D4249401C35
:10357000E07584F816B04046FDF7E6FA2E80002785
:1035800098F80000BB280ED198F80100042862D1F9
:10359000A07E00285FD184F810B037493748FDF786
:1035A000D3FA2E80002798F80000B1280CD198F8A3
:1035B000010004284FD1FF20207526742E492F4882
:1035C000FDF7C2FA2E80002798F80010EE2942D1AC
:1035D00098F8010004283ED12C4F267581022674EC
:1035E00000223846FEF7E3F8002279143846FEF749
:1035F000DEF800224FF480413846FEF7D8F800226A
:1036000008213846FEF7D3F8002210213846FEF78D
:10361000CEF8002220213846FEF7C9F8002000F03D
:1036200097F80022B9153846FEF7C1F8002279153F
:103630003846FEF7BCF8002239153846FEF7B7F8D1
:103640000D490E48FDF780FA2E800027642001F016
:103650003DFF84F819B02673642F05D30649074847
:10366000FDF772FA2E8000277F1CFFB20A2001F0BE
:103670002DFFE8E6D60000202A0400200C130020CD
:10368000380600202E0300200000C040000C01403E
:103690000EB5DFF8AC80DFF8AC902B4C2B4D4FF023
:1036A000FF3A00276E46002352466946D8F80000CC
:1036B00002F082FCC9F800009DF8000004280AD13D
:1036C0009DF80100BF2806D184F82270E787BDF875
:1036D000020040BAE0840020315C2954401CC0B292
:1036E0000928F9D9092161871848FDF713FA84F8E8
:1036F000200001281BD11448A78746302A79027080
:10370000EA784270AA7982706979C170006860664F
:1037100010F1FF4F01D3A78407E00121FCF738FE29
:1037200002F0B8F9FCF737FFA08484F8207000207D
:103730002F543754401CC0B20928F9D9B3E7000010
:1037400010000020140000201C000020C8070020EA
:1037500010B50A4A0A49042310870B7021244C70C3
:10376000040A8C70C870054C5385803400231A46B7
:10377000E06902F01DFD206210BD00001C00002069
:1037800002060020154F164E4FF0FF38A7F18004B7
:103790004FF48075002342461249786902F00CFC10
:1037A000B861012229463046FEF701F80A23228D2E
:1037B0000C490D48FFF7BCF9E07020B907490948EA
:1037C0005839FDF7C1F9002229463046FDF7EFFFD1
:1037D000092206490448FFF745F9DBE79C00002071
:1037E000000801400C060020E8070020BC0500206E
:1037F0000E4C4FF0FF36A4F18005002332460C49F1
:10380000E06902F0D9FB20620A236A8D0849094861
:10381000FFF78EF928710028EFD104490448563982
:10382000FDF792F9322001F051FEE6E79C000020FE
:103830001606002028080020B14D4FF0000A4FF076
:10384000010905F1AA044FF0040B687B01281FD180
:10385000A87BE8B9E87BE8BB287CD8BB687D012859
:103860003CD121202070A64884F801B00221AA3062
:1038700001F0DDFDA886010AA170E070A0480421D6
:10388000AA30FDF763F885F815A0642001F01EFE4C
:10389000A87B01281DD1E87BD8B9287CC8B9687DF0
:1038A000012816D1AA202070954884F801B0022181
:1038B000AA3001F0BCFDA886010AA170E070904812
:1038C0000421AA30FDF742F885F815A0642001F024
:1038D000FDFD00E002E0687B012871D1A87D012890
:1038E000FBD1A87E2F46002864D0DF2020700E2058
:1038F0006070B88D010AA170E070F88C010A217126
:103900006071B88C010AA171E0717D480821AA306C
:10391000FDF71CF81E2001F0D9FD7A4E4FF48051BE
:103920003046FDF73BFFDFF8D881711408F1A40899
:1039300088F800003046FDF731FF88F801004FF4A9
:1039400080413046FDF72AFF88F802000821304602
:10395000FDF724FF88F8030010213046FDF71EFF15
:1039600088F8040020213046FDF718FF88F805008C
:1039700008F10E06504686F800A087F80BA0C0B2EA
:1039800018F800100129317809FA00F219D0914392
:10399000401CC0B23170F8720628F0D34FF4807129
:1039A0005848FDF7FBFE7871D04686F801A0012843
:1039B00009D00AE0DD2020700E206070F88E99E7B3
:1039C00058E01143E4E786F80190B879012870784F
:1039D00021D020F002007070387A012870781DD054
:1039E00020F00400707097F821000128707818D03A
:1039F00020F00800707097F822000128707813D02A
:103A000020F0100070707878B070B878F07087F897
:103A10000B803D490DE040F00200DCE740F004007F
:103A2000E0E740F00800E5E740F01000EAE708288A
:103A300002D2F87A225C02E0321812F8082C0A54FA
:103A4000F87A401CC0B2F8721028F0D36078801E5B
:103A500081B22D4801F0EBFCB886010A317170711A
:103A60006078083881B22648B230FCF76FFFB87230
:103A700087F81680287C03281DD1A87CD8B9687ED9
:103A8000C8B9642001F022FDEE2020701C4884F8A3
:103A900001B00221AA3001F0CAFCA886010AA17077
:103AA000E07017486178AA30FCF750FF642001F0FD
:103AB0000DFD85F810A0687E01281DD1564685F8B9
:103AC00010A0642001F002FDE12020700C4884F871
:103AD00001B00221AA3001F0AAFCA886010AA17057
:103AE000E07007486178AA30FCF730FF642001F0ED
:103AF000EDFC85F80D906E76642001F0E7FCA4E6FD
:103B00001C000020000C01402006002086B0FFF7BA
:103B10001DFA0122D1038C48FDF749FE0020FFF772
:103B200017FE40F6771000904FF4D8700190874848
:103B3000002604908648DFF81C8235463446B1469C
:103B40000390B8F840104046491CA8F840100A2DD0
:103B50001BD305468049C06DFCF7DCFB10F0FF4F1E
:103B600028660CD00499FCF7A3FB0399FCF748FBEB
:103B700001F090FFFCF70FFD6870287001E085F8F8
:103B80000190C5F85C90002501E06D1CEDB20A2E95
:103B90002FD371494746D8F85000FCF7BBFBC7E963
:103BA000149000268246494610F0FF4F1FD0DDE9F1
:103BB0000010081AFCF7DEFC834602910198FCF71E
:103BC000D4FC5146FCF771FBFCF712FD0022634B5D
:103BD000FCF7EAFB5A46029BFCF758FCFCF7EFFCAB
:103BE000C0B2B870642806D96420B87003E0B97018
:103BF00001E0761CF6B25A4805214FF0020B017025
:103C00000321417080F802901421C17080F8049063
:103C100080F805B0852181718B21C171DFF834A155
:103C200008200AF1800AA8F8280000234F461A4607
:103C30004B49DAF8140002F0BBFACAF81800B8F8D9
:103C40003C001E2808D3012188F821101E21A8F865
:103C50003C10A8F8247001E088F82170B8F83C0006
:103C6000401CA8F83C00322001F030FC3C493F22C7
:103C70000A31002381F800B04A70A8F82AB01A4629
:103C8000DAF81C0002F094FACAF82000B8F83E00F6
:103C90001E2809D3012188F82210A8F826701E21B9
:103CA0004046A8F83E1002E0404688F82270C18FD6
:103CB000491CC18798F8100078B34FF4004122489E
:103CC000FDF771FDB8F836104046491CA8F83610CB
:103CD00098F80110872901D90121817481780A2976
:103CE00001D280F812B0818CB1F52F7F01D9032168
:103CF0008174C18CB1F5C87F10D9641CE4B20A2C60
:103D000002D3042181740A24017EC27D914207D12D
:103D1000C17F491C88F81F1008E004E00024F3E785
:103D200088F81F7002E04046A8F83670C17D017621
:103D3000C17F142903D30521817488F81F703220B4
:103D400001F0C4FBFDE60000000801405EBA493EF8
:103D500000C0B2C21C0000200000C8420000594050
:103D6000F805002001F0BEBB30B593B009204FF438
:103D7000803100248DE8130001200225CDE90605DD
:103D800004904FF4E010CDE908106846FEF748FAB9
:103D900008B1BE211BE00F20CDE90A054FF4806079
:103DA000CDE90C4002210AA80E94FEF717F908B1DC
:103DB000CC210CE013200F904FF400701090800184
:103DC000CDE911040FA8FEF795F818B1D6210AA085
:103DD00001F012FBFEF7C8F94FF47A71B0FBF1F075
:103DE000FEF72DFC0420FEF71EFC00220F21501EC2
:103DF000FDF790FD13B030BD2E2E2F5372632F6D43
:103E000061696E2E630000000D48016841F00101F8
:103E1000016041680B4A1140416001680A4A114043
:103E20000160016821F480210160416821F4FE01F4
:103E300041604FF41F0181600449C003086070476E
:103E4000001002400000FFF8FFFFF6FE08ED00E062
:103E50000148FEF733BC0000C41E0020F0B5026824
:103E6000164C174D174E4FF08047A04205D0B84270
:103E700003D0A84201D0B04203D122F070034A68B7
:103E80001A43A04205D0B84203D0A84201D0B042A4
:103E900003D122F44073CA681A434B6922F08002AE
:103EA000134303608A68C2620A688262A04201D139
:103EB0000969016301214161F0BD0000002C01404E
:103EC000000400400008004010B5406A0021C18590
:103ED000C184FEF7B4FC10BD0168CA6822F4907278
:103EE000CA6001684A6922F001024A61202180F813
:103EF0003A10704710B590F83A10222901D00220EC
:103F000010BD8168B1F5805F11D001690029016899
:103F10001FD0496801F07F03816A4A1C82620B70DE
:103F2000C18D491E0904090CC18518D02BE0026916
:103F3000816A002A0268526805D0D2B20A80816A7A
:103F4000491C8162ECE7C2F308020A80816A891C7D
:103F5000F7E74A68816A4B1C83620A70E0E70168F0
:103F6000CA6822F02002CA600168CA6822F480721E
:103F7000CA6001684A6922F001024A61202180F882
:103F80003A10FEF799FD002010BD00002DE9F04128
:103F9000044600680169E26821F44051114301615F
:103FA000A16820690143606901432068C26841F249
:103FB0000C639A430A43C26020684169A26921F4F4
:103FC0004071114341614C49206864263227884280
:103FD0003CD1FEF7DFF800EBC00101EB0010616897
:103FE0008900B0FBF1F5FEF7D5F800EBC00101EB5D
:103FF00000106168B8468900B0FBF1F0B0FBF6F044
:104000006FF01801484305EB800107EB0110B0FB8E
:10401000F6F000F0F005FEF7BDF800EBC00101EB93
:10402000001061688900B0FBF1F0B0FBF6F005EB21
:104030000015FEF7AFF800EBC00101EB001061685E
:104040008900B0FBF1F7FEF7A5F83BE0FEF792F828
:1040500000EBC00101EB001061688900B0FBF1F5D5
:10406000FEF788F800EBC00101EB00106168B8466C
:104070008900B0FBF1F0B0FBF6F06FF01801484397
:1040800005EB800107EB0110B0FBF6F000F0F00546
:10409000FEF770F800EBC00101EB001061688900C9
:1040A000B0FBF1F0B0FBF6F005EB0015FEF762F89F
:1040B00000EBC00101EB001061688900B0FBF1F773
:1040C000FEF758F800EBC00101EB001061688900B1
:1040D000B0FBF1F0B0FBF6F06FF01801484307EBCE
:1040E000800108EB0110B0FBF6F0216800F00F0032
:1040F00028448860BDE8F0810038014090F839100C
:10410000212901D0022070478168B1F5805F016AE2
:104110000BD04A1C0262026809785160C18C491EAA
:104120000904090CC1840ED017E009880268C1F3A4
:104130000801516001690029016A02D0491C01622D
:10414000ECE7891CFBE70168CA6822F08002CA60BC
:104150000068C16841F04001C160002070472DE94E
:10416000F0411E46174688460446069D1CE0681C22
:104170001AD025B1FDF720FB801BA84214D9206876
:10418000C16821F4D071C1602068416921F001014A
:104190004161202084F8390084F83A00002084F836
:1041A00038000320BDE8F0812068016838EA01008A
:1041B00004D00020B842DAD00020F3E70120F9E76C
:1041C0000148FEF73DBB0000E80700200148FEF76C
:1041D00037BB000028080020D0F8180220B10021C9
:1041E000C0F81412084670470220704770B50546A3
:1041F000D0F8184200F028FBC4F80C02D5F81802D9
:1042000048B1D5F81C12D4F80402CA6804F5037149
:104210009047002070BD022070BD70B50446002597
:10422000812100F077FA0121204600F073FA822103
:10423000204600F06FFAD4F8180250B1D4F81C02EE
:1042400004F5067440688047206800F091FD002066
:104250002060284670BD10B5D0E9864159B194F868
:104260000002FF2807D08B6894F801222146984766
:10427000FF2084F80002002010BD00000A21018008
:1042800000487047480400204321018000487047DF
:104290009804002043210180004870475404002006
:1042A0004321018000487047DC0400202DE9F041E3
:1042B0000546007C00264FF4007770B340230222AD
:1042C0008121284600F020FB4023022201212846BC
:1042D00000F01AFB082303228221284600F014FB79
:1042E0004FF4077000F046FDC5F81802F0B104461F
:1042F000D5F81C02006880470021C4F81412C4F8E5
:104300001812287CD4F8042290B1402301212846B9
:1043100000F00DFB3046BDE8F081FFE73B4602228E
:104320008121284600F0F0FA3B46CEE70126F1E76E
:104330003B46EBE710B5D0F8181269B1027C002AB1
:10434000D1F8042205D04023012100F0F0FA00202A
:1043500010BD4FF40073F7E7022010BD02460220A3
:10436000002902D00020C2F81C127047D0F81802B1
:10437000C0F8041200207047D0F81802C0F81022CC
:10438000C0F808120020704770B50646D0F81852E1
:1043900008780C4610F0600121D0202927D1E2884E
:1043A000AAB10006607807D5D6F81C128B6829469A
:1043B0009847E288294617E085F80002A07985F839
:1043C0000102E2882946304600F050F80FE0D6F8A6
:1043D0001C12607800228B682146984707E06078BD
:1043E0000A2804D103490122304600F059F8002080
:1043F00070BD00004404002010B5D0F8181289B137
:10440000D1F814220AB1012010BD0122C1F81422F2
:10441000B1F8102293B2D1F80822812100F031FBCB
:10442000002010BD022010BD10B5D0F81422526833
:104430009047002010BD134610B50A46002100F039
:1044400076FA002010BD134610B50A46002100F090
:1044500018FB002010BD10B50446802100F0E8FADA
:104460002046BDE81040002100F0E2BA10B5032359
:10447000C0F80821C0F8F431C0F80C2113460A46F0
:10448000002100F054FA002010BD10B505210023D2
:10449000C0F8F4111A46194600F049FA002010BD80
:1044A00010B502238261C0F8F431C26113460A4696
:1044B000002100F0E6FA002010BD10B50421002311
:1044C000C0F8F4111A46194600F0DBFA002010BDBE
:1044D00010B50A46024903A000F0D4F8004810BD08
:1044E0000C11002043444320436F6E66696700004F
:1044F00012200880004870471804002010B50A46B2
:10450000024903A000F0BEF8004810BD0C110020C5
:1045100043444320496E7465726661636500000020
:1045200004200880004870471404002010B50A4693
:10453000024903A000F0A6F8004810BD0C110020AD
:1045400053544D6963726F656C656374726F6E6905
:104550006373000010B50A46024903A000F092F808
:10456000004810BD0C11002053544D3332205669C1
:10457000727475616C20436F6D506F72740000002F
:1045800010B50A46024903A000F07CF8004810BDAF
:104590000C1100203030303030303030303031418C
:1045A00000000000F8B5044648880D46010A0829B5
:1045B0004BD2DFE801F04A0409174A4A4048D4F8D0
:1045C0001012207C0A6832E0207C02260028D4F8F1
:1045D000140205D0C16A684688470146467041E02A
:1045E000816AF8E7C0B206282FD2DFE800F003089E
:1045F0000D12171CD4F81012207C4A6817E0D4F86A
:104600001012207C8A6812E0D4F81012207CCA684C
:104610000DE0D4F81012207C0A6908E0D4F81012DA
:10462000207C4A6903E0D4F81012207C8A6969462C
:104630009047014616E0207C38B9D4F81402416B4B
:1046400068468847F5E7207C20B129462046FFF7D9
:1046500002FFF8BDD4F81402016B68468847014692
:1046600007204870BDF800000028F2D0EA88002A30
:10467000EFD0824200D90246ADF800202046FFF775
:104680000FFFF8BD70B5002300281DD0044600259B
:1046900002E06D1CEDB2641C2678002EF9D10224D4
:1046A00004EB45041480CC545B1C0322CA54002440
:1046B0005B1C06E0CA545B1CDAB28C54521CD3B2A9
:1046C000401C0278002AF5D170BD10B580B1D0F839
:1046D000143213B10023C0F8143209B1C0F810121B
:1046E000012180F8FC11027000F0B2F8002010BD2A
:1046F000022010BD10B50024D0F82002FDF786F985
:1047000030B1012801D0022801D0022400E00124A8
:10471000204610BD10B50024D0F82002FDF756F950
:1047200030B1012801D0022801D0022400E0012488
:10473000204610BD2DE9F0411746044641B1D4F89A
:10474000140242698AB394F8FC01032842D043E082
:10475000D4F8F411002504F11400022933D1D0E972
:1047600002639E4207D9F31A83609AB23946204603
:10477000FFF769FE12E04068B0FBF3F103FB1101A3
:10478000A1B9984212D3D4F8F81188420ED200226F
:1047900011462046FFF757FEC4F8F85100231A4689
:1047A0001946204600F0C3F80DE012E0D4F81402D8
:1047B000C16829B194F8FC01032801D1204688473B
:1047C0002046FFF762FE94F80002012804D184F825
:1047D000005201E0204690470020BDE8F08170B50E
:1047E0001546044641B1D4F8140282693AB394F8EC
:1047F000FC01032824D025E0D4F8F41104F58270DC
:1048000003291FD1D0E902318B420BD95B1A836097
:104810000846834200D303469AB229462046FFF752
:104820000AFE0FE0D4F81402016929B194F8FC01E2
:10483000032801D1204688472046FFF73EFE01E0CD
:1048400020469047002070BDD0F82002FDF702B945
:1048500010B504461E481F49C0F85C44C4F8200245
:10486000016008214160022181600021C1608161F5
:10487000C1610162FDF7F5F920B14FF4997116A0FD
:1048800000F0BAFD0022D4F820021823114604F5E6
:104890000874FDF771F85823002280212068FDF785
:1048A0006BF8C023002281212068FDF765F84FF4E2
:1048B0008873002201212068FDF75EF84FF48073B1
:1048C000002282212068FDF757F8002010BD00006B
:1048D000AC0C0020005C00402E2E2F5372632F750D
:1048E0007362645F636F6E662E6300000A06D0F821
:1048F000200201F07F0100EB411002D590F82A0060
:10490000704790F82A02704770B51D461346002480
:10491000D0F820022A46FDF7A5F830B1012801D0D1
:10492000022801D0022400E00124204670BD10B509
:104930000024D0F82002FDF7B7F830B1012801D0EB
:10494000022801D0022400E00124204610BD70B5E9
:104950000022044640231146FFF7D6FF40252B4690
:10496000002280212046C4F81051FFF7CDFF01201E
:10497000256284F8FC01D4F8180228B1D4F8140296
:104980002179426820469047002070BD90F8FD11C3
:1049900080F8FC110020704710B590F8FC11032935
:1049A00004D1D0F81412C96901B18847002010BDA4
:1049B00001740020704710B50024D0F82002FDF7E4
:1049C000EAF930B1012801D0022801D0022400E028
:1049D0000124204610BD70B5044600F5027005465E
:1049E00000F05FF80120C4F8F401B4F80E02C4F836
:1049F000F80194F8082212F01F000AD001280DD007
:104A0000022810D002F08001204600F011F80020AA
:104A100070BD2946204600F0AAF8F8E7294620464E
:104A200000F08CF9F3E72946204600F019F9EEE78B
:104A300010B50024D0F82002FDF74DF830B1012860
:104A400001D0022801D0022400E00124204610BD3C
:104A500010B50024D0F82002FDF7B8F930B10128D4
:104A600001D0022801D0022400E00124204610BD1C
:104A700090F8FC1180F8FD11042180F8FC11002051
:104A8000704710B50024D0F82002FDF74FF830B180
:104A9000012801D0022801D0022400E00124204690
:104AA00010BD0A7802704A7842708A78CB7802EB9F
:104AB000032242800A794B7902EB032282808A79B1
:104AC000C97902EB0121C18070470246002011B173
:104AD000C2F8141270470220704710B5D0F81422A3
:104AE00002241AB11268904700B90024204610BD74
:104AF00070B50D461A4E897804463170012928D8C0
:104B000094F8FC01022802D0032822D105E099B1D3
:104B10000320616084F8FC0109E091B1606888427B
:104B20000AD0C1B22046FFF77FFC31786160204691
:104B3000FFF7D3FF02280CD02046BDE87040FFF7F6
:104B4000BCBC022084F8FC0120466160FFF76CFCCD
:104B5000F2E729462046BDE87040FFF77CBC000024
:104B60004004002010B5FFF773FF002010BD2DE9B1
:104B7000F04100274A7801263B460A2A43D2DFE863
:104B800002F03C584251420805422A27FFF70AFD2D
:104B900063E004468888C8B9C888B8B9887800F046
:104BA0007F0594F8FC01032810D084F8FE512946B3
:104BB0002046FFF700FF2046FFF77FFC1DB10220D3
:104BC00084F8FC0149E084F8FC6146E020461AE0E4
:104BD000FFF78EFF41E0CA88012A14D190F8FC212A
:104BE000022A02D0032A0ED104E0012200F10801BA
:104BF000836014E00122011D11E090F8FC21022ADB
:104C000004D0032A02D0FFF726FC26E0C660D0F8C5
:104C1000041209B10321C160022200F10C01FFF767
:104C20003FFC1AE004464888012816D1C4F8046203
:104C30000BE0044690F8FC01022801D00328C5D1FE
:104C40004888012809D1C4F80432D4F814028268D3
:104C5000204690472046FFF730FC3846BDE8F081FB
:104C600070B50D460446287800260979C0F3411036
:104C7000012806D06878A0B301281FD003283FD1AF
:104C800007E0D4F8140229468268204690470020A5
:104C900070BD94F8FC01022817D003282CD1688835
:104CA00028B921B1802902D02046FFF7C1FED4F8EF
:104CB0001402294682682046904713E094F8FC01CC
:104CC000022802D0032817D103E0C9B180291BD1E3
:104CD00016E06888A0B9480604D02046FFF70AFD10
:104CE000E5E703E02046FFF7E8FB09E094F8FC0164
:104CF000022807D003280BD029462046FFF7ABFB3C
:104D0000304670BD4806FBD02046FFF791FEF7E71E
:104D1000080601F07F0004EB001501D5143501E011
:104D200005F582752046FFF7E1FD00B101202860FE
:104D3000022229462046FFF7B3FBE1E770B505469E
:104D400090F8FC010C4603280DD1207901280AD8DF
:104D5000D5F81402826828469047E08830B9284682
:104D6000FFF7ABFB02E02846FFF775FB002070BDA4
:104D700070470000004870478C0A00202DE9F0477A
:104D8000CB780A7848F68F1433B1012B67D0022B09
:104D900008D0032B0BD17FE030F82230234043F4BE
:104DA000007302E030F82230234020F822300A78E5
:104DB00030F8224048F68F731C4048F280052C439F
:104DC000144320F822408A7A48F6BF794FF0040C49
:104DD0004BF68F7A48F2C0044CF28007F2B30A789F
:104DE00030F8226048F280181E4046EA080620F893
:104DF0002260CA88B0F8506022F0010291F8008069
:104E000006EBC80600EB4606C6F800240A89B0F88F
:104E1000506022F0010291F800800CEBC80C66444F
:104E200000EB4606C6F800244A78002A0A7830F8D3
:104E300022604FEA46467DD0002E05DA30F8226027
:104E40001E403E4320F822600A7830F82260760641
:104E500008D530F822601E40264301E028E021E01A
:104E600020F822600A7830F822401C403C4320F8A9
:104E700022400A7830F8223003EA09032B4320F855
:104E80002230097830F8212002EA0A022A4320F869
:104E900021200020BDE8F08730F82230234043F481
:104EA000C06382E730F82230234043F480637CE71C
:104EB0004A78002A8A8822F001021BD0B0F850609C
:104EC0000F7806EBC70600EB4606C6F800240A7802
:104ED00030F82260760605D530F822601E40264361
:104EE00020F82260097830F8212002EA090282F0D5
:104EF0002002CBE7B0F850400E780CEBC6063444E5
:104F000000EB4404C4F80024B0F850200C780626C6
:104F100006EBC404224400EB42060A694FF6FF7C0C
:104F200006F580663E2A0CD9C2F34F14D20603D18F
:104F3000641E00E021E0A4B20CEA842242F40042A4
:104F400007E0C2F34F04D20701D0641CA4B20CEAFC
:104F5000842232600A7830F82240640405D530F8A3
:104F600022401C403C4320F82240097830F82120A0
:104F700002EA0A0282F4405288E7002E05DA30F88D
:104F800022601E403E4320F822600A7830F82260FA
:104F9000760605D530F822601E40264320F82260B0
:104FA0000A7830F822601E40264320F822600A78F2
:104FB00030F8223003EA0A0383F440532B4320F8ED
:104FC0002230097830F8212002EA09025EE7002049
:104FD00070472DE9F04391F80A804C780A7848F63A
:104FE000BF794BF68F7748F2800548F2C0064CF245
:104FF000800C48F68F73B8F1000F2AD0002C30F8DF
:1050000022404FEA444449D0002C06DA30F82240CE
:105010001C4044EA0C0420F822400A7830F8224070
:10502000640605D530F822401C40344320F8224065
:105030000A7830F822401C4044EA0C0420F8224050
:105040000A7830F8223003EA09032B4320F8223093
:105050001AE0002C30F822400DD0640605D530F857
:1050600022401C40344320F82240097830F82120A7
:1050700002EA09020CE0640406D530F822401C4024
:1050800044EA0C0420F82240097830F821203A4004
:105090002A4320F821200020BDE8F083002C06DA06
:1050A00030F822401C4044EA0C0420F822400A78E0
:1050B00030F82240640605D530F822401C403443C5
:1050C00020F822400A7830F822401C40344320F86F
:1050D00022400A7830F822303B402B4320F822301F
:1050E000C3E7002070470020704700B50121A0F8F9
:1050F00040100021A0F84010A0F84410A0F8501073
:1051000000F038F9002000BD30F8401F21F43D4187
:105110000180002070470020704730B54C780A7835
:10512000002C48F68F7530F8224048F2800312D0E8
:10513000640607D530F822402C4048F2C0052C43C5
:1051400020F82240097830F8212048F6BF74224028
:1051500082F0300211E0640407D530F822402C4080
:105160004CF280052C4320F82240097830F82120A9
:105170004BF68F74224082F440521A4320F82120CB
:10518000002030BD10B50A7848F2800352B149784A
:10519000002930F8221010D048F6BF74214081F069
:1051A00010010FE001884BF6BF72114081F480516D
:1051B00081F010011943018007E04BF68F74214004
:1051C00081F48051194320F82210002010BD2DE9F0
:1051D000F0410D460646896995F801C00023AA7A78
:1051E000022728690C4648F28008BCF1010F05D05F
:1051F000814252D90446081AA8614FE0814203D97E
:105200000446081AA86100E0AB617AB1287836F844
:1052100020104906B6F8501007EBC000084406EB12
:105220004000C0F8004412D52A8911E0A3B2AA8830
:105230003046696900F0CBF8B6F85000297807EBE2
:10524000C101084406EB4000C0F800441CE0EA88B5
:10525000A3B23046696900F0BAF8687848F68F72F0
:1052600010B1012807D00FE0287836F8201011403F
:1052700048F2C00205E0287836F8201011404CF2C0
:105280008002114326F82010287836F8201048F6BE
:10529000BF72114081F0300165E0AB6106234FF62B
:1052A000FF711AB1BCF1000F19D054E0B6F85000EC
:1052B0002A783E2C03EBC202104406EB400202F5B2
:1052C000806237D9C4F34F10E30630D001EA802062
:1052D00040F4004001E001EA802010603BE0B6F8B5
:1052E00050002A783E2C07EBC202104406EB400225
:1052F00002F580620BD9C4F34F105FEAC46C01D190
:10530000401E80B201EA802040F4004008E0C4F36F
:105310004F005FEAC47C01D0401C80B201EA8020CB
:10532000106068780028C1D001280AD013E0401E20
:1053300080B2CBE7C4F34F00E307CCD0401C80B26F
:10534000C9E7B6F85000297807EBC101084406EB1D
:105350004000C0F80044287836F820104BF68F72D1
:10536000114081F4405141EA080126F82010002044
:10537000BDE8F08130F8401F41F43F41018000203A
:10538000704700000148FCF7E6BB0000AC0C0020B1
:105390000148FCF7E0BB0000AC0C0020B0F8440072
:1053A00070475B1C00EB42005B0800F5806005D095
:1053B00030F8042B21F8022B5B1EF9D17047002036
:1053C000704711B98021A0F84C100020704710B52B
:1053D0005B1C00EB42005B0800F5806009D011F80F
:1053E000012B5B1E11F8014B42EA042220F8042B2A
:1053F000F5D110BDFEE70000044D4FF4004400223B
:1054000021462846FCF7D3F9F9E7000000080140DF
:1054100002E008C8121F08C1002AFAD1704770477D
:10542000002001E001C1121F002AFBD1704730B5F6
:10543000044600204AF201050CE014F8012B50400C
:105440000022C30700D02B46521C92B283EA5000C0
:10545000082AF6D3491E89B2EFD230BDFCF7BAF95B
:10546000FEF782FC4FF4FA60FCF7A2F8FDF7B2FCFD
:10547000FDF7FAFCFDF71AFDFDF742FDFDF7B8FB5D
:1054800000220921052000F073FD09490922486026
:1054900008490948FDF7E6FA054904220C31074896
:1054A000FDF7E0FAFDF7F6FB00F017F8FEE7000065
:1054B0000C000020BC050020E80700202808002080
:1054C00001460020842900D0C81C704710B500B9DF
:1054D000012000F0F9FB002010BD10B500F08CFC9D
:1054E000002010BD10B500F0D5FF012803D0BDE8A5
:1054F000104000F027BD10BD3EB504460D46B0F982
:105500000800FFF7DDFF02A9CDE90001208A2B4644
:1055100082B2D4E9001000F091FF012801D00020F0
:105520003EBD02983EBD00002DE9F041184E0F46E9
:105530000446F5683068001D00F0E5FA38B93068B7
:1055400090F82C1001208840316981433161601C42
:1055500007D137B13168BDE8F0410E48091D00F0B0
:105560000ABB30682C44AC424460316805D2B06B51
:10557000BDE8F041091D00F0E6BA706B091D00F0AE
:10558000E2FAB06A844200D2B462BDE8F081000061
:1055900080050020B44300202DE9F041054600F0CD
:1055A000F7FA2E4EB068401CB06030682C4F10B136
:1055B000706940B32DE03560B068012829D100241E
:1055C00004EB840007EB800000F0AFFA641C072CAA
:1055D000F6D323488C3000F0A8FA2148A03000F020
:1055E000A4FA1F48B43000F0A0FA1D48C83000F0FB
:1055F0009CFA1B48DC3000F098FA19488C30706334
:105600001430B06305E03068E96AC06A884200D8A7
:105610003560706A0121401C7062E86A326981401D
:105620001143316100EB800007EB8000291D00F081
:10563000A2FA00F0CDFA706900280CD03068E96A4F
:10564000C06A884207D207494FF080500860BFF314
:105650004F8FBFF36F8FBDE8F08100008005002001
:10566000D842002004ED00E070B5124E124D1CE04F
:1056700000F0F6FB306820B1002401F003F8A4B973
:1056800001E00124F9E700F083FAF068C468201D06
:1056900000F039FAA868401EA8606868401E68607B
:1056A00000F096FA204600F052F868680028DFD132
:1056B00070BD0000A04300208005002030B4026CC3
:1056C0000B46002A0BD0C1681144C1604468A14256
:1056D00001D30168C16030BC1846FAF77FBD30BC09
:1056E00070472DE9F041856B174604460026026C91
:1056F00082B1C7B1E068FAF771FDE168206C091A60
:10570000E1602268914202D26168081AE060022FCB
:1057100016D017E02068A8B9606800F02DFF064693
:10572000002060600EE0A068FAF758FD216CA068C8
:105730000844A0606168884204D32068A06001E04A
:1057400005B16D1E6D1CA5633046BDE8F08110B536
:105750000446006B00F050FA2046BDE8104000F00F
:105760004BBA00000F4842F2D331420705D0C01DAA
:105770000C4A20F00700821A891A0B4A00230144C0
:10578000C2E900030839103A21F0070111604B60AB
:105790000B600B1AC0E9001393604FF00040536098
:1057A000D0607047041F00206C050020074E4FF0AA
:1057B0008054074DFFF758FF30680128FAD92C6054
:1057C000BFF34F8FBFF36F8FF4E70000D842002084
:1057D00004ED00E02DE9F0479A46DDE909848146B1
:1057E0006FF00303206B03EB82021044089D20F04E
:1057F0000706700707D0502080F31188BFF34F8F42
:10580000BFF36F8FFEE723180A5C83F834200A5C2D
:1058100012B1401C1028F6D3002784F84370072DDE
:1058200000D30625E562C4E91157201D00F088F970
:1058300004F1180000F084F92461C5F107006462E6
:10584000A061E76484F8507052464946304600F043
:105850000FF92060B8F1000F01D0C8F80040BDE892
:10586000F087000030B5114900E011460A68824215
:10587000FBD34B685C18844203D1406818444860ED
:10588000084643681C18944209D1084C103C24680F
:10589000A24209D052681A4442600A681268026043
:1058A000814200D0086030BD0460F9E76C0500203B
:1058B00010B5044600F06CF9A06B20B1002400F094
:1058C00087F9204610BD0124F9E700000648416B26
:1058D000096829B1416BC968C96849688162704724
:1058E0004FF0FF31FAE700008005002008484068CB
:1058F000401C4FF0500080F3118804D0BFF34F8F4D
:10590000BFF36F8FFEE7BFF34F8FBFF36F8FFEE7DD
:10591000740500202DE9F041044600F039F994F9AE
:10592000455004F1240609E0606A48B1304600F0B1
:105930006FFE08B100F0EEF96D1E6DB2002DF3DCC4
:105940004FF0FF3684F8456000F042F900F020F98E
:1059500094F9445004F1100709E0206948B1384631
:1059600000F056FE08B100F0D5F96D1E6DB2002DA5
:10597000F3DC84F84460BDE8F04100F029B9000090
:105980002DE9F0410546002600F06AFA314F3868EB
:1059900008B9FFF7E7FEF86805424BD1C5B30835F3
:1059A00068070ED005F00700C0F10800054468073D
:1059B00007D0502080F31188BFF34F8FBFF36F8F54
:1059C000FEE72DB37868854234D822491031084665
:1059D000046801E0214604466068A84202D22068BB
:1059E0000028F7D13868844224D00E682068086007
:1059F00060680836411B10290FD96019420708D08A
:105A0000502080F31188BFF34F8FBFF36F8FFEE7F5
:105A100010E041606560FFF725FF61687868401A13
:105A20007860BA68904200D2B860F86801430020FC
:105A3000C4E9000100F026FE700707D0502080F373
:105A40001188BFF34F8FBFF36F8FFEE73046BDE87D
:105A5000F08100005C0500200449086818B108685E
:105A6000826C521C82640868704700008005002028
:105A700010B5031F4FF080741C601B1F21F0010143
:105A80001960191F024B0B60143940380A6010BDB1
:105A9000ED58000870B50546FAF7F4FD04460146D6
:105AA0002846FAF7FFFB15F0004F4FF07F410ED06C
:105AB000B0F13F4F28BFB1EB400F0ED2B0F17C5F89
:105AC0001DDDB1EB400F1AD313E0044617E0B0F12F
:105AD0003F4F08D9B1EB400F05D34FF07E51204620
